:1000000001C100001EC100001CC100001AC1000097
:1000100018C1000016C1000014C1000012C1000088
:1000200010C100000EC100000CC100000AC1000098
:1000300008C1000006C1000004C1000002C10000A8
:1000400000C10000FEC00000FCC00000FAC00000BB
:10005000F8C00000F6C00000F4C0000034C2000088
:10006000F0C00000EEC00000ECC00000EAC00000DC
:10007000E8C00000E6C00000E4C00000E2C00000EC
:10008000E0C00000DEC00000DCC00000DAC00000FC
:10009000D8C00000D6C00000D4C00000D2C000000C
:1000A000D0C00000CEC00000CCC00000CAC000001C
:1000B000C8C00000C6C00000C4C00000C2C000002C
:1000C000C0C00000BEC00000BCC00000BAC000003C
:1000D000B8C00000B6C00000B4C00000B2C000004C
:1000E000B0C0000000002100240027002A002D00DD
:1000F0003000330001010000040107010A01000083
:100100002200250028002B002E00310034000201BF
:100110000000050108010B0100002000230026005B
:1001200029002C002F00320000010000030106010D
:10013000090105050505070508080808020202026D
:100140000A0A080804040404010101010101010173
:100150000303030303030303040707070C0C0C0C3E
:100160000C0C0C0C02020202060606060606060627
:100170000B0B0B0B0B0B0B0B0102102020080810B4
:100180002040102040800201020108040201010207
:1001900004081020408080402010080402018004E0
:1001A000020180402010080402010804020101023B
:1001B0000408102040800102040810204080000044
:1001C0000A0B02090C0D0E080703040100000000D1
:1001D000000000000000000000000000000000001F
:1001E00000000000000000000000121110000000DC
:1001F00000000000000000000000000000000000FF
:100200000000000011241FBECFEFD1E2DEBFCDBF42
:1002100000E00CBF12E0A0E0B2E0E4E5F7E000E0AF
:100220000BBF02C007900D92A630B107D9F722E0AC
:10023000A6E0B2E001C01D92A131B207E1F78DD175
:1002400087C2DECE8150823108F059C0E82FF0E03D
:100250008827E35DFE4F8F4F73C24D0151013F016F
:10026000450149017F0154015A015E0164016801A1
:100270006C01720176017F017A0180018401809115
:1002800080008F77809380000895809180008F7D1B
:10029000F9CF80918000877FF5CF84B58F7784BDBB
:1002A000089584B58F7DFBCF8091B0008F778093C8
:1002B000B00008958091B0008F7DF9CF80919000BB
:1002C0008F77809390000895809190008F7DF9CF73
:1002D00080919000877FF5CF8091A0008F778093E9
:1002E000A00008958091A0008F7DF9CF8091A0009B
:1002F000877FF5CF809120018F778093200108952B
:10030000809120018F7DF9CF80912001877FF5CFEB
:10031000CF93DF93282F30E0F901E254FE4F849110
:10032000F901E858FE4FD491F901EE5CFE4FC491FB
:10033000CC2399F0811186DFEC2FF0E0EE0FFF1F48
:10034000E85EFE4FA591B491EC91ED2381E090E041
:1003500009F480E0DF91CF91089580E090E0FACF3A
:100360001F93CF93DF93282F30E0F901E254FE4F23
:100370008491F901E858FE4FD491F901EE5CFE4FEB
:10038000C491CC23A1F0162F81115CDFEC2FF0E09B
:10039000EE0FFF1FE250FF4FA591B4918FB7F89475
:1003A000EC91111108C0D095DE23DC938FBFDF9153
:1003B000CF911F910895DE2BF8CFCF93DF9390E07C
:1003C000FC01E858FE4F24918E5C9E4FFC01849105
:1003D0008823D1F090E0880F991FFC01EC51FF4F6A
:1003E000A591B491FC01E250FF4FC591D4916111E8
:1003F0000EC09FB7F8948C91E22FE0958E238C93DA
:100400002881E223E8839FBFDF91CF9108958FB7C2
:10041000F894EC91E22BEC938FBFF6CF3FB7F894B2
:1004200080910D0290910E02A0910F02B0911002E6
:1004300026B5A89B05C02F3F19F00196A11DB11D3F
:100440003FBFBA2FA92F982F8827BC01CD01620F7B
:10045000711D811D911D42E0660F771F881F991F36
:100460004A95D1F708958F929F92AF92BF92CF9203
:10047000DF92EF92FF924B015C01D0DF6B017C01B8
:10048000CDDF6C197D098E099F09683E7340810597
:100490009105B0F321E0821A9108A108B10888EE15
:1004A000C80E83E0D81EE11CF11C81149104A10444
:1004B000B10431F7FF90EF90DF90CF90BF90AF90F5
:1004C0009F908F9008951F920F920FB60F92112454
:1004D0002F933F938F939F93AF93BF938091090284
:1004E00090910A02A0910B02B0910C023091080287
:1004F00023E0230F2D3758F50196A11DB11D209340
:1005000008028093090290930A02A0930B02B09311
:100510000C0280910D0290910E02A0910F02B091F9
:1005200010020196A11DB11D80930D0290930E0241
:10053000A0930F02B0931002BF91AF919F918F9142
:100540003F912F910F900FBE0F901F90189526E8A6
:10055000230F0296A11DB11DD2CFCF93DF9300D000
:1005600000D0CDB7DEB7789484B5826084BD84B501
:10057000816084BD85B5826085BD85B5816085BD9E
:1005800080916E00816080936E0010928100809156
:1005900081008260809381008091810081608093DE
:1005A0008100809180008160809380008091B10003
:1005B00084608093B1008091B00081608093B0002E
:1005C0008091910082608093910080919100816080
:1005D0008093910080919000816080939000809141
:1005E000A10082608093A1008091A100816080932E
:1005F000A1008091A00081608093A00080912101E2
:10060000826080932101809121018160809321018A
:100610008091200181608093200180917A00846024
:1006200080937A0080917A00826080937A00809132
:100630007A00816080937A0080917A00806880934C
:100640007A001092C10061E085E3B7DE61E082E3E9
:10065000B4DE61E083E3B1DE61E08DE2AEDE60E056
:1006600080E3ABDE86E0E0E0F2E0DE01119601908F
:100670000D928A95E1F7D12CC12CF12CE12C32E0BE
:10068000A32EB12C80E344DE892B81F46EE170E06F
:1006900080E090E0E8DE80E33BDE892B39F4EF2850
:1006A000A1F5D12CC12CEE24E394F12C198160E04A
:1006B000812F56DE812F2CDE1B8160E0812F50DEE2
:1006C000812F26DE1D8160E0812F4ADE812F20DE12
:1006D0000091060210910702F801EE0FFF1F81E062
:1006E00090E08C0F9D1FE80FF91F61E0808138DEDC
:1006F000C114D104D1F4023011056CF40F5F1F4F07
:1007000010930702009306020AC0CC24C394D12C94
:10071000F12CE12CCBCF109207021092060264EF6D
:1007200071E080E090E09FDEADCF101611061CF462
:1007300001501109E5CFB0920702A0920602EFCF57
:10074000EE0FFF1F881F8BBF0790F691E02D1994C5
:04075000F894FFCF4B
:0607540035003200330005
:00000001FF
